:020000040800F2
:10000000580B002099020008B12200086121000865
:10001000CD210008E1050008F52B000800000000D4
:10002000000000000000000000000000CB220008DB
:10003000E305000800000000B3220008CD220008FC
:10004000B3020008B3020008B3020008B3020008BC
:10005000B3020008B3020008B3020008B3020008AC
:10006000B3020008B3020008B3020008B30200089C
:10007000B3020008B3020008B3020008B30200088C
:10008000B3020008B3020008B3020008B30200087C
:10009000B3020008B3020008B3020008B30200086C
:1000A000B3020008B3020008B3020008B30200085C
:1000B000B3020008B3020008B3020008B30200084C
:1000C000B3020008B3020008B3020008B30200083C
:1000D000B3020008E92B0008B3020008B3020008CD
:1000E000B3020008B3020008B3020008B30200081C
:1000F000B3020008B3020008B3020008B30200080C
:10010000B3020008B3020008B3020008B3020008FB
:10011000B3020008B3020008B3020008B3020008EB
:10012000B3020008B3020008B3020008B3020008DB
:10013000B3020008B3020008B3020008B3020008CB
:10014000B3020008B3020008B3020008B3020008BB
:10015000B3020008B3020008B3020008B3020008AB
:10016000B3020008B3020008B3020008B30200089B
:10017000B3020008B3020008B30200080000000048
:10018000B3020008B3020008B3020008B30200087B
:10019000B3020008B3020008B3020008B30200086B
:1001A000B3020008B3020008B3020008B30200085B
:1001B000B3020008B3020008B3020008B30200084B
:1001C000B3020008B3020008B3020008B30200083B
:1001D000B3020008B3020008B3020008B30200082B
:1001E000B3020008B3020008B3020008B30200081B
:1001F000B3020008B302000800F002F800F03CF877
:100200000AA090E8000C82448344AAF10107DA4571
:1002100001D100F031F8AFF2090EBAE80F0013F087
:10022000010F18BFFB1A43F001031847D82C000038
:10023000F82C0000103A24BF78C878C1FAD85207C9
:1002400024BF30C830C144BF04680C607047000050
:100250000023002400250026103A28BF78C1FBD8CF
:10026000520728BF30C148BF0B6070471FB502F06E
:1002700036FE1FBD10B510BD00F0CFF81146FFF7D8
:10028000F5FF02F00CFE00F0EDF803B4FFF7F2FF0B
:1002900003BC00F0F5F80000094880470948004712
:1002A000FEE7FEE7FEE7FEE7FEE7FEE7FEE7FEE726
:1002B000FEE7FEE704480549054A064B7047000083
:1002C000C9240008F901000858050020580B002037
:1002D000580700205807002053EA020C00F06980FC
:1002E0002DE9F04B4FF00006002B1FBFB3FA83F54A
:1002F00003FA05F424FA05F65E4012BF1643B2FA7B
:1003000082F502FA05F4C5F120051EBF22FA05FCAC
:1003100044EA0C04203556EA044C4FEA144418BF52
:10032000641C4FF000084FF00009904271EB030C81
:1003300039D3002919BFB1FA81F701FA07F6B0FAEB
:1003400080F700FA07F6C7F120071EBF20FA07FC66
:1003500046EA0C062037B6FBF4FCA7EB0507103F76
:1003600007F01F0BCBF120060CFA0BFB2CFA06F65C
:1003700044BFB3460026202FA4BF5E464FF0000BBB
:100380005BEA060C08BF4FF0010B19EB0B09ABFB46
:10039000027C48EB0608C01B06FB02CC0BFB03CC1F
:1003A00071EB0C01C1E70B46024641464846BDE8E9
:1003B000F08B13B54FF000004FF00001AFF3008059
:1003C000BDE81C4070474FF0000200B5134694464C
:1003D0009646203922BFA0E80C50A0E80C50B1F19D
:1003E0002001BFF4F7AF090728BFA0E80C5048BFB1
:1003F0000CC05DF804EB890028BF40F8042B08BF4F
:10040000704748BF20F8022B11F0804F18BF00F84A
:10041000012B7047704770477047754600F02CF805
:10042000AE4605006946534620F00700854618B0E1
:1004300020B5FFF73FFFBDE820404FF000064FF02A
:1004400000074FF000084FF0000B21F00701AC4609
:10045000ACE8C009ACE8C009ACE8C009ACE8C00928
:100460008D46704710B50446AFF300802046BDE8C6
:100470001040FFF70ABF000000487047F804002052
:1004800001491820ABBEFEE72600020070470000BD
:1004900002490122024801F099BD0000010000203C
:1004A000580400200B4810B501F09BFB01F0C2F886
:1004B00000F006FA0848094A01681140016008493D
:1004C000086880F30888044A48681C3A1160BDE84F
:1004D000104000475804002024ED00E0FEFFF9FF23
:1004E000008000080E4900B587B00A6842F4007227
:1004F0000A60096803230B4A01F400710591012188
:1005000052F82020CDE90021CDE902130549083138
:1005100051F82000694600F04BFB07B000BD000019
:10052000303802402C0000200449044A083231F8D7
:10053000201052F8200089B200F063BC2C0000208B
:100540000349044A31F8101052F8200000F054BC5E
:10055000002F00082800002030B504461D4887B051
:10056000026842F00102026000684FF002021A4D78
:100570001A4B00F0010005904FF00000F1B1012985
:100580001AD135F814104FF48815CDE90202CDE9DF
:10059000001553F82400694600F00AFB0E4D0022B6
:1005A0000F21AD1C15F8140040B200F0A5FC15F8A1
:1005B000140040B200F093FC07B030BD35F81410C1
:1005C000CDE90010CDE9020253F82400694600F09D
:1005D000EFFAF1E730380240002F00082800002031
:1005E000FEE7704772B6FEE703460020024610B5EC
:1005F00003E09C5C6040521CD2B28A42F9D310BD29
:1006000030B50024234603E0C55CCD54C4545B1CC4
:100610009342F9D330BD00004FF0000229B1012907
:100620001FD0022920D04FF440720B2800D9001DA2
:100630000F490B6823F440730B600B6813430B6086
:100640000A68022303EBC00322F0F8020A6008687C
:1006500018430860086840F480300860BFF34F8F8B
:1006600070474FF48072E0E74FF40072DDE700005E
:10067000103C02400F4A0329136823F440731360AF
:100680000FD00229116811D041F0040111601168E6
:100690004FF4803343EA002001431160BFF34F8FD2
:1006A0007047116848F204031943EFE741F4004131
:1006B000ECE70000103C0240074A136823F4407343
:1006C000136013681360136843F001031360017033
:1006D000BFF34F8F70470000103C02400A4910B52D
:1006E0000C6824F440740C600C6844F440740C6092
:1006F0000C6844F001040C600260BFF36F8F43602C
:10070000BFF34F8F10BD0000103C0240084A136831
:1007100023F440731360136843F480731360136809
:1007200043F0010313600180BFF34F8F7047000057
:10073000103C0240084A136823F4407313601368A6
:1007400043F400731360136843F001031360016006
:10075000BFF34F8F70470000103C0240134914480C
:100760000A68920703D5826942F0200282610A6812
:10077000D20603D5826942F0100282610A689206AD
:1007800003D5826942F0080282610A68520603D5E5
:10079000826942F0040282610A68120603D5826906
:1007A00042F002028261F220086070470C3C024075
:1007B000DC040020124970B505460020886100F075
:1007C00029FB104C064609E0681C07D025B100F053
:1007D00021FB801BA84201D9032070BD2068C00303
:1007E000F2D4206810F0F20F03D0FFF7B7FF01201A
:1007F00070BD2068C00701D001202060002070BDBE
:10080000DC0400200C3C02402DE9F041876D0446D9
:1008100000F000FB064694F835000025022806D0BB
:1008200080206065012084F83450BDE8F0812068A4
:10083000016821F0160101602068416921F0800102
:100840004161206C08B9A06C20B12068016821F0DA
:10085000080101602068016821F0010101600CE0DD
:1008600000F0D8FA801B052807D9202161650320F4
:1008700084F8350084F83450D7E720680068C00752
:10088000EED194F85C203F2001219040B86084F8BC
:100890003510002084F83450C7E790F8351002294D
:1008A00003D08021416501207047052180F8351073
:1008B0000068016821F0010101600020704700001C
:1008C00070B50B4E00210A4A4FF0FF30351D103A2B
:1008D000141D3060231D3160286029601060116094
:1008E000206021601860196000F0CEFA002070BD11
:1008F000203802402DE9F047044620480F46017D8C
:10090000012909D001214CF2503980460175484631
:10091000FFF750FF18B12CE00220BDE8F0874FF040
:10092000FF3139602168164D012901D0A6681BE00E
:10093000207C6168FFF79EFE4846FFF73BFF296871
:1009400048F204029143296013E0217C3046FFF70E
:1009500063FE4846FFF72EFF296821F0FA0129605F
:1009600008B13E6005E0761CD4E902211144B14291
:10097000EBD8002288F81420CFE70000DC04002028
:10098000103C02400348016841F000410160002032
:1009900070470000103C02402DE9F0471D4D07460E
:1009A00014461E468946287D012808D001204CF2B5
:1009B000503828754046FFF7FDFE18B126E00220AA
:1009C000BDE8F08737B1012F09D0022F0CD0032FDB
:1009D00014D10EE04846E1B2FFF76EFE0EE0A1B280
:1009E0004846FFF793FE09E021464846FFF7A2FE7E
:1009F00004E0224633464846FFF770FE4046FFF7C4
:100A0000D9FE05490A6822F001020A600021297511
:100A1000D6E70000DC040020103C0240084900201A
:100A200010B50A68002A09DA054A064B0C3A064C4A
:100A3000136014600968002900DA012010BD00006D
:100A4000103C024023016745AB89EFCD2DE9F04F03
:100A5000DFF82CE100224FF001094FF00F0A00BF30
:100A600009FA02F401EA0403A3427DD122F003064D
:100A700076444FEA827CD6F808784FEA1C7CDFF88F
:100A800004810AFA0CFB40450BEA070501D1002757
:100A90002DE03D4FB84201D1012728E03B4FB8423D
:100AA00001D1022723E03A4FB84201D103271EE0CB
:100AB000384FB84201D1042719E0374FB84201D16D
:100AC000052714E0354FB84201D106270FE0344F17
:100AD000B84201D107270AE0324FB84201D10827B6
:100AE00005E0314FB84201D1092700E00A2707FA93
:100AF0000CF7AF421ED12D4DD5F800C02F1D2CEAAA
:100B0000030CC5F800C03D68DFF8A0C09D433D6000
:100B10000CF10C0CDCF80070ACF104059F43CCF830
:100B200000702F689F432F60D6F8085825EA0B0500
:100B3000C6F8085806680323D7084FEA42084FEA68
:100B4000427C03FA08F34FEADC6C9E4306600AFA23
:100B50000CF500EB87073E6AAE433E62C5689D43D5
:100B6000C5604568A54300E003E0456084689C4398
:100B70008460521C102AFFF473AFBDE8F08F0000B0
:100B80000030014000000240000402400008024022
:100B9000000C024000100240001402400018024005
:100BA000001C02400020024000240240003C0140A2
:100BB0002DE9F84FDFF80CB2012403254FF00F0A9E
:100BC00000220BF1040E00BF0B6804FA02F633405A
:100BD000B34278D10F7907F00307012F01D0022F1C
:100BE0001AD187684FEA4209D1F80CC005FA09F812
:100BF00027EA08070CFA09FC4CEA070CC0F808C001
:100C0000476891F804C0B743CCF3001C0CFA02FC0F
:100C10004CEA070CC0F804C00E79F643B6070BD0B7
:100C2000C6684FEA420C8F6805FA0CF826EA0806F7
:100C300007FA0CF73743C7600E7906F00306022E59
:100C400012D1D6084FEA427800EB860600960F696B
:100C5000D6F820904FEAD8660AFA06FCB74029EA8F
:100C60000C063743009E37620F7906684FEA420C44
:100C700007F0030705FA0CF807FA0CF726EA08064E
:100C8000374307604E6816F4403F1CD04E4E37681D
:100C900047F480473760366822F00308970706F468
:100CA00080460096494E3F0F4644B146D6F8086844
:100CB000DFF81C810AFA07FC404526EA0C0603D13E
:100CC0004FF0000C41E076E0DFF808C1604502D14A
:100CD0004FF0010C39E0DFF800C1604502D14FF060
:100CE000020C32E0DFF8F4C0604502D14FF0030C93
:100CF0002BE0DFF8ECC0604502D14FF0040C24E09B
:100D0000DFF8E0C0604502D14FF0050C1DE0DFF8D0
:100D1000D8C0604502D14FF0060C16E0DFF8CCC019
:100D2000604502D14FF0070C0FE0DFF8C4C060450A
:100D300002D14FF0080C08E0DFF8B8C0604502D1DE
:100D40004FF0090C01E04FF00A0C0CFA07FC4CEADA
:100D5000060CC9F808C84F68DBF80060FF0226EAF5
:100D6000030600D51E437746CBF80060D1F804C0D7
:100D7000DEF800605FEA8C2C26EA030600D51E43ED
:100D8000DFF840C03E60ACF1040C4F68DCF8006056
:100D9000BF0326EA030600D51E430A4FCCF80060C5
:100DA000083FD1F804C03E685FEACC3C26EA03065F
:100DB00000D51E433E60521C102AFFF405AFBDE86B
:100DC000F88F0000083C01404438024000300140E8
:100DD000000002400004024000080240000C0240F3
:100DE000001002400014024000180240001C0240A3
:100DF00000200240002402400069084000D0012089
:100E00007047426921EA02030A4043EA02418161D4
:100E10007047000001488068704700001000002003
:100E200002488168027811448160704710000020F8
:100E3000032010B500F080F80F2000F005F800F056
:100E400025F8002010BD000070B50D4D04464FF48C
:100E50007A700C4A29781268B0FBF1F0B2FBF0F01E
:100E600000F0AAFE48B9102C07D200222146501EDD
:100E700000F042F800206C6070BD012070BD0000E1
:100E8000100000201C000020704700000A4808B530
:100E9000016841F080510160006800F080500090CE
:100EA0000548001D016841F480410160006800F4BC
:100EB0008040009008BD00004038024000280DDB53
:100EC000410900F01F028900012001F1E02190405A
:100ED000C1F88001BFF34F8FBFF36F8F70470028B9
:100EE00009DB410900F01F028900012001F1E02126
:100EF0009040C1F8000170470E4BF0B41B680D46DE
:100F0000C3F30223C3F10706042E00D90426191DDA
:100F1000072901D2002300E0DB1E012404FA06F1B8
:100F20009C40491E2940641E994014402143F0BC56
:100F300001F0A4BF0CED00E0064900F0070210B577
:100F40004FF6FF040868044B204040EA0220184393
:100F5000086010BD0CED00E00000FA051848F8B577
:100F6000016841F0805101600068164C00F080502B
:100F70000090206840F480302060FFF74BFF4FF472
:100F80007A76054605E000BFFFF744FF401BB042FC
:100F90000FD86068C003F7D5206840F400302060A7
:100FA000FFF738FF054606E0FFF734FF401BB0426D
:100FB00001D90320F8BD60688003F5D50020F8BD95
:100FC00040380240007000402DE9F84F0446007898
:100FD000DFF824944FF000063746C0070ED0D9F84A
:100FE000001021F40001C9F80010D9F80010626B5C
:100FF0001143C9F80010606B00B90126FE4D20684E
:10100000843500030ED5E16B286820F440100843B6
:101010002860E06BB0F5801F01D010B102E001261E
:1010200000E0012720684FF4800BC0020CD5216C32
:10103000286820F4400008432860206C584501D1FE
:10104000012601E000B901272068C10100D5012671
:10105000800666D5E8483830016841F0805101606B
:101060000068DFF898A300F080500090DAF80010D4
:1010700041F48071CAF80010FFF7CCFE804605E00D
:10108000FFF7C8FEA0EB080064287DD8DAF800005E
:10109000C005F5D5DFF8608308F16808D8F80000CE
:1010A00010F440702AD0218E01F44071814225D085
:1010B000D8F80010D8F8002021F4407142F48032B2
:1010C000C8F80020D8F8002022F48032C8F80020A8
:1010D000C8F80010D8F80000C0070FD0FFF79AFE3C
:1010E000824607E0FFF796FEA0EB0A0141F2883046
:1010F0008142CAD8D8F800008007F3D5206BC0F32E
:10110000012103297ED0D9F8001021F4F811C9F883
:101110000010228ED8F80010C2F30B021143C8F859
:1011200000102078C00607D5286820F0807028605D
:101130002868A16B084328602188AF48883049049B
:1011400005D5626E016821F44031114301602188A8
:10115000090405D5A26E016821F440211143016004
:101160002168C90305D5E26E016821F440111143DD
:1011700001602168890305D5226F016821F44001CF
:1011800011430160217800E034E1490605D5626C25
:10119000016821F00301114301602178090605D59A
:1011A000A26C016821F00C01114301602188C9057E
:1011B00005D5E26C016821F03001114301602188FE
:1011C000890505D5226D016821F0C0011143016038
:1011D0002188490505D5626D016821F440711143EC
:1011E00001602188090505D5A26D016821F44061DF
:1011F000114301602188C90407D5E26D016821F41B
:10120000405100E068E0114301602188890405D560
:10121000226E016821F440411143016021684902B6
:1012200005D5A26F016821F080611143016021683A
:101230004FF0006A890209D5E26F016821F0006170
:1012400011430160E16F514500D1012721680A0770
:1012500000D50127490305D5626F016821F040716F
:10126000114301602168090206D5D4F88020016885
:1012700021F08051114301602168490106D5D4F85D
:101280008420016821F000511143016020680001B1
:1012900006D5D4F88810286820F00070084328602C
:1012A0002068C00006D5D4F88C10286820F0806033
:1012B00008432860DFF84891012E02D020688001A1
:1012C0007ED5D9F800004E4620F08060C9F80000B5
:1012D000FFF7A0FD80460FE04A4AD9F800301040E1
:1012E00023F4F8120243C9F8002012E7FFF792FD39
:1012F000A0EB080064287DD830680001F6D421787E
:101300003D487C30C90712D0616B81B9237A62688D
:101310000168D0F800C09201C1F3014142EA0142E4
:10132000CCF3036142EA016141EA03710160216883
:101330000A0303D5E26BB2F5801F04D0C9021AD5A7
:10134000216C594517D16368016894F80CC0026894
:101350009B01C1F3014143EA0141C2F3027241EA38
:101360000C6141EA027101602968626A21F01F0183
:10137000521E114329602168C90110D5238A626871
:101380000168D0F800C09201C1F3036142EA034250
:1013900042EA0162CCF3027142EA01710160216804
:1013A00089010CD56168228A237B94F808C08901E1
:1013B00041EA024141EA036141EA0C71016000E047
:1013C00011E03168B04641F080613160FFF722FDE5
:1013D000064604E0FFF71EFD801B64280AD8D8F8F3
:1013E00000000001F6D5E7B3D9F800004E4620F022
:1013F000805009E07BE000000838024000700040A7
:1014000000380240FFFCFF0FC9F80000FFF702FDA3
:10141000074604E0FFF7FEFCC01B642867D830686D
:10142000C0438000F6D5216835480A0301D5E26B38
:101430001AB1C9021DD5216CD9B963690168277E2B
:1014400002689B01C1F3014143EA0143C2F3027107
:1014500043EA076242EA0171016029686FF0FF0305
:1014600000E04BE0A26A21F4F85103EB02221143A1
:1014700029602168890212D5E16F51450FD1238C73
:101480006269016807689201C1F3036142EA03429D
:1014900042EA0162C7F3027142EA017101602178F8
:1014A000090716D561690268D0F800C08B01277F53
:1014B000C2F30362CCF3014143EA014141EA026114
:1014C00041EA077101602868E16A20F4403008436E
:1014D0002860306840F080503060FFF79BFC044685
:1014E00008E000BFFFF796FC001B642802D9032028
:1014F000BDE8F88F3068C0438000F3D40020F7E7E0
:10150000883802402DE9F04705000F4663D0444E6D
:10151000306800F00F00B84209D2306820F00F00A8
:1015200038433060306800F00F00B84253D128686B
:101530003C4C810712D5400703D5206840F4E050A9
:1015400020602878000703D5206840F460402060C0
:10155000A968206820F0F000084320602878C007C0
:101560002AD0304968680839012810D00968022853
:1015700010D0890700292EDA216821F003010143E8
:101580002160FFF747FC804641F288390DE0096889
:101590008903EFE78901EDE7FFF73CFCA0EB0801C9
:1015A000494502D90320BDE8F0876868216801F049
:1015B0000C01B1EB800FEFD1306800F00F00B842A2
:1015C0000BD9306820F00F0038433060306800F0ED
:1015D0000F00B84201D00120E5E72878400705D583
:1015E000E968206820F4E05008432060287800076C
:1015F00006D52869216821F4604141EAC0002060D5
:1016000000F0DCF82168084AC1F30311515CC840BE
:101610000649086006480068FFF716FC0020C2E78C
:10162000003C024008380240E82E00081C00002060
:10163000140000202DE9F041FFF7ECFB4A4C054671
:10164000206840F00100206005E000BFFFF7E2FBEA
:10165000401B022857D820688007F7D5206840F043
:1016600080002060FFF7D6FB3F4E0546083600207D
:10167000306041F2883704E0FFF7CCFB401BB842F2
:1016800041D8306810F00C0FF6D1FFF7C3FB0546C8
:10169000206820F45020206005E000BFFFF7BAFB6F
:1016A000401B64282FD820688003F7D4FFF7B2FBD3
:1016B0000546206820F08070206004E0FFF7AAFB58
:1016C000401B02281FD820688001F7D4FFF7A2FB37
:1016D0000546206820F08060206004E0FFF79AFB58
:1016E000401B64280FD820680001F7D4FFF792FB55
:1016F0000546206820F08050206007E0FFF78AFB55
:10170000401B642802D90320BDE8F08120688000D6
:10171000F4D4154B1448154A1B1D134C0C301349B7
:10172000103284341A60251D2160296002680E4938
:1017300022F4FE420260743102680D4B42F47F02D3
:101740000260086820F001000860086840F08070BE
:1017500008600848036008480068FFF775FB002828
:10176000D2D00120D0E70000003802400030002431
:101770000024F4001C000020140000200449054847
:1017800009680068044AC1F38221515CC84070476F
:10179000083802401C000020F82E000804490548C3
:1017A00009680068044AC1F34231515CC84070477F
:1017B000083802401C000020F82E0008154910B51A
:1017C0001548096811F00C0213D01449042A0FD0EF
:1017D000082A0ED10F4C241F2268236802F03F0212
:1017E0005B0207D52068C0F38810A0FB010106E06A
:1017F000084610BD2168C1F38811A1FB0001002338
:10180000FEF76AFD2168C1F30141491C4900B0FBA4
:10181000F1F010BD083802400024F40040787D014A
:101820002DE9F84F04004FF000076ED02078DFF864
:101830007CA3AAF10408C007A8F104054CD0DAF88B
:1018400000105046C1F38101012908D00068C0F39F
:10185000810002280AD1D8F80000400206D5286885
:10186000800339D560680028DFD035E06068B0F5C6
:10187000803F0BD010B1B0F5A02F11D0286820F414
:1018800080302860286820F4802002E0286840F436
:1018900080302860606890B1FFF7BCFA06460AE025
:1018A000286840F480202860F0E700BFFFF7B2FA14
:1018B000801B642872D828688003F7D50CE0FFF7F6
:1018C000A9FA064605E000BFFFF7A4FA801B6428CA
:1018D000F0D828688003F7D42078800742D5DAF85A
:1018E0000010504611F00C0F08D00068C0F38100C2
:1018F00002280BD1D8F80000400207D428688007DE
:1019000018D5E068012800D114E04AE1E068002819
:10191000286817D040F001002860FFF77BFA0646E0
:1019200005E000BFFFF776FA801B0228C2D82868BE
:101930008007F7D52069296821F0F80141EAC00045
:1019400028600FE020F001002860FFF763FA0646E8
:1019500005E000BFFFF75EFA801B02281ED828684A
:101960008007F7D42078000729D5904861696C304A
:1019700000298146016812D041F001010160FFF7A2
:1019800049FA064605E000BFFFF744FA801B02282B
:1019900004D8D9F800008007F6D510E089E021F0DE
:1019A00001010160FFF736FA064604E0FFF732FA5C
:1019B000801B02287DD8D9F800008007F6D4207853
:1019C00040076BD5DFF8E49109F13809D9F8000038
:1019D000C0000BD4D9F8001041F08051C9F80010B4
:1019E000D9F80000012700F080500090704801688D
:1019F000C90512D40168834641F480710160FFF784
:101A000009FA064605E000BFFFF704FA801B6428C8
:101A10004FD8DBF80000C005F6D5644EA0686836E4
:101A200001280AD008B1052811D0306820F0010043
:101A30003060306820F0040002E0306840F00100BF
:101A40003060A068A0B1FFF7E5F983460CE030688C
:101A500040F004003060F0E7FFF7DCF9A0EB0B0189
:101A600041F28830814268D830688007F4D50EE0B2
:101A7000FFF7D0F9834607E0FFF7CCF9A0EB0B01A5
:101A800041F28830814258D830688007F4D42FB1B1
:101A9000D9F8001021F08051C9F80010A069E0B316
:101AA000DAF80010C1F3810102294DD0022828681C
:101AB00000E042E020F08070286003D0FFF7AAF930
:101AC00004463DE0FFF7A6F9064604E0FFF7A2F959
:101AD000801B022831D828688001F7D4D4E9092175
:101AE000DFF8D0C0D4E9070694F830304F0894F8F6
:101AF0002C1030430CEB074444EA8212104340EAB6
:101B0000016040EA0370C8F80000286840F0807067
:101B10002860FFF77FF9044605E044E0FFF77AF913
:101B2000001B022809D828688001F7D53BE000BFD8
:101B3000FFF770F9001B022802D90320BDE8F88FD7
:101B400028688001F4D42EE00128D8F8000028D0BD
:101B5000E16900F480028A4223D1216A00F03F0249
:101B60008A421ED1626A47F6C0710140B1EB821F02
:101B700017D1A16A4FF0FF3200F4403302EB51015C
:101B8000B3EB014F0DD194F82C1000F07062B2EB62
:101B9000016F06D194F8301000F0E040B0EB017F07
:101BA00001D00120CAE70020C8E700000838024041
:101BB000007000400000FFFF401EB0F1807F10B5B4
:101BC00001D3012010BD4FF0E02460610F216017A8
:101BD00001F054F90020A0610721216110BD704778
:101BE000704770B5040019D02420A0670025206834
:101BF000016821F0010101602068056020684560EE
:101C000020688560204600F08BF9C4F88050A567F5
:101C1000E5672566002084F8745070BD012070BD12
:101C2000704700002DE9F04102680446002540F6A7
:101C30000F06D06911689368304205D186067DD5BC
:101C40008E067BD5616E1CE1994F03F001060F40B3
:101C5000374373D0C70709D0CF0507D501271762CF
:101C6000D4F8802042F00102C4F8802082070AD50F
:101C7000DA0708D0276802223A62D4F8802042F0BE
:101C80000402C4F8802042070AD5DA0708D0236886
:101C900004221A62D4F8802042F00202C4F88020A4
:101CA00002070CD501F02002324308D02368082235
:101CB0001A62D4F8802042F00802C4F8802002059D
:101CC0000BD54A0109D523684FF400621A62D4F893
:101CD000802042F02002C4F88020D4F88020002A1E
:101CE00036D0800605D5880603D5616E09B1204639
:101CF00088472168D4F880008968490602D410F02A
:101D0000280F27D0204600F083FC2068806840061A
:101D10001BD52068083050E8001F21F0400140E842
:101D20000012002AF5D1206F78B162490165206F59
:101D3000FEF7B3FD00280BD0206F00E010E0016D2E
:101D400000E02046BDE8F04108472046FFF768FF65
:101D5000BDE8F0812046FFF763FFC4F88050F7E745
:101D6000276E2026012F7CD1C7067AD5CF0678D5DD
:101D70001020106220688068400641D5216F0868F5
:101D800040680004000CE3D0B4F858208242DFD948
:101D9000A4F85A00C869B0F5807F2AD0216851E8BC
:101DA000000F20F4807041E80002002AF6D120687C
:101DB000083050E8001F21F0010140E80012002A1D
:101DC000F5D12068083050E8001F21F0400140E8BC
:101DD0000012002AF5D1E6672566216851E8000F58
:101DE00020F0100041E80002002AF6D1206FFEF733
:101DF0000BFDB4F85800B4F85A10401A81B22BE029
:101E0000B4F85800B4F85A10B4F85A20401A81B205
:101E1000002A9DD000299BD0206850E8002F22F492
:101E2000907240E80023002BF6D1206800F10800F2
:101E300050E8002F22F0010240E80023002BF4D1EB
:101E4000E66725666566206850E8002F22F01002DC
:101E500040E80023002BF6D12046FFF7C0FE77E7CD
:101E6000FFE7C70208D55B0206D54FF48010106269
:101E70002046FFF7B5FE6BE7020606D50A0604D535
:101E8000A16E00297FF45DAF62E74006E7D5480602
:101E9000E5D52046026852E8001F21F0400142E8E3
:101EA0000013002BF6D18667856600F031F94FE705
:101EB00020010004FD25000810B5040002D0A06F29
:101EC00010B107E0012010BD002084F87400204606
:101ED00000F042F82420A0672068016821F0010189
:101EE0000160204600F058FC0128ECD0606A10B177
:101EF000204600F0F1FA2068416821F490414160E9
:101F00002068816821F02A0181602068016841F021
:101F1000010101602046BDE8104000F041BB000017
:101F200010B50068094988420ED10948016821F0BE
:101F30001001016007484FF4C061FEF787FDBDE85E
:101F400010402520FEF7BABF10BD00000010014070
:101F5000443802400000024010B586B00446142107
:101F60006846FEF730FA16492068884226D115489F
:101F7000016841F010010160006800F01000059058
:101F800010481438016841F0010101600068022125
:101F9000002200F001000590032307244FF4C060E5
:101FA0008DE81F0008486946FEF702FE0022252042
:101FB0001146FEF7A1FF2520FEF791FF06B010BDE8
:101FC00000100140443802400000024030B4C36FAA
:101FD000202B1DD1C9B1C2B190F87430012B17D09C
:101FE000012480F874400023036603685B681B02C9
:101FF00008D5046854E8003F43F0806344E80035A6
:10200000002DF6D130BC00F0DFBC012030BC7047A1
:102010000220FBE770B500681C49884235D11C4C92
:102020000A201C49002522466071A0785378421C82
:102030000228D2B207D20B5428BB0878D02819D175
:102040000120A07017E04E78B61C864212D90B54BE
:102050004978491CC9B2884215D1E02B0AD10E49F2
:102060000C48E270FEF7CCFA0948C01D017841F037
:1020700001010170A57001220549BDE870400748C3
:10208000491CFFF7A3BFA270F5E770BD0010014027
:10209000000000203C0000203C01002058040020EB
:1020A00070B5836F202B2DD1B9B1B2B190F87430D7
:1020B000012B27D08668012480F8744000238366B2
:1020C0002125C164B6F5805FA0F85020A0F8522009
:1020D000C0F88030856702D003E0012070BD01693F
:1020E00071B10949816680F87430026852E8001FB6
:1020F00041F0800142E80013002BF6D1002070BDB2
:102100000249EFE7022070BDD12A0008812A0008A9
:1021100070B500680E49884218D10E4D28788006A7
:1021200014D5EC1F0C480122217801440B48FFF71D
:10213000B7FF2078401CC0B220702179884205D1B9
:102140002978012021F020012970207070BD000045
:1021500000100140070000203C020020580400202D
:10216000FEE70000094808B5016841F0010101607F
:10217000016801F001010091016841F080010160F6
:10218000006800F08000009008BD00003038024078
:102190000D48002110B50B4C0C224FF4E1330460C4
:1021A000C0E90131C160C0E904128161C16101620D
:1021B0004162FFF781FE002803D0BDE81040FEF722
:1021C00011BA10BD0010014058040020FEE70000C5
:1021D00010B50A4C207800060FD5094841780078E0
:1021E00000F009FD207820F0800040F01001054843
:1021F0002170017841F00801017010BD0B00002032
:1022000009000020070000207047000010B50B4CAB
:102210002078410710D440060ED5094807C800F0C1
:1022200011FD0848217821F0400141F0080121709A
:10223000017841F00801017010BD00000B00002082
:102240004C0400200700002070B5164C2078C10710
:102250001ED0154D2878801EC1B21448FEF7C4F96F
:102260002A781249114411F8021C814207D100F06A
:102270005BFD207820F0040040F0020004E02078AC
:1022800020F0020040F00400207000F0FE0006E0A4
:10229000000705D500F0F0FC207820F00800207041
:1022A00070BD000007000020030000203C0100205A
:1022B000FEE7704710B5FFF7C7FFFFF789FFFFF78D
:1022C000A5FFBDE81040FFF79FBF704710B500F0B5
:1022D00053F8BDE81040FEF7A3BD0000002010B584
:1022E000FEF722F90B480078C00705D009480838E6
:1022F000817911B1491E817110BDBFF34F8F06481E
:10230000064A016801F4E06111430160BFF34F8F99
:1023100000BFFDE7080000200CED00E00400FA0516
:102320007047000010B5094C2078C1060CD5800616
:102330000AD4074901220748FFF7B2FE207820F0AF
:10234000100040F02000207010BD000007000020A9
:102350003C020020580400200449487910B1401E76
:10236000487170470020887070470000000000200E
:10237000704770477047000007480178491C01709A
:102380004179491CC9B241710A2903D30121417025
:1023900000224271704700002000002070B51A4CE6
:1023A0000025207810B1FFF7D7FF2570607801284D
:1023B00028D16570FFF7B6FFA078401CC0B2A070AE
:1023C000022802D1FFF7D4FFA570E078401CC0B20C
:1023D000E070052816D1E570FFF7CCFF2079401C8E
:1023E0002071C1070ED1FFF79BFF20790A2801D089
:1023F000142807D3FFF7BDFF2079142802D3FFF775
:102400006DFF257170BD00002000002030B5B7B011
:10241000342124A8FDF7D7FF142131A8FDF7D3FFFD
:1024200090216846FDF7CFFF2548016841F08051B3
:102430000160006800F0805036902248016841F445
:102440004041016000680224192300F440403690A6
:1024500001202C934FF4D87582050104CDE92A425E
:10246000CDE92D542F94CDE9240124A83094FFF711
:10247000D7F908B172B6FEE7FEF770FD08B172B683
:10248000FEE74FF480524FF4A0510025CDE93412FD
:1024900031AA0F20072182E8310031A8FFF732F876
:1024A00008B172B6FEE74020119500906846FEF72D
:1024B0008BFD002801D072B6FEE737B030BD0000BA
:1024C00040380240007000400248016841F4700149
:1024D0000160704788ED00E090F82410C90706D02D
:1024E0000168836A4A6822F400321A434A6090F80D
:1024F0002410890706D50168C36A4A6822F480322D
:102500001A434A6090F82410490706D50168036B06
:102510004A6822F480221A434A6090F8241009077E
:1025200006D50168436B4A6822F400421A434A60A8
:1025300090F82410C90606D50168836B8A6822F4D6
:1025400080521A438A6090F82410890606D50168E3
:10255000C36B8A6822F400521A438A6090F82410F0
:10256000490611D50168036C4A6822F480121A43A7
:102570004A60016CB1F5801F06D10168436C4A685E
:1025800022F4C0021A434A6090F82410090606D5C6
:102590000168826C486820F400201043486070474E
:1025A000F8B500260446C0F88060FEF733FC054607
:1025B00020686FF07E470068000708D500222B4690
:1025C0004FF400112046009700F0A8FA60B9206887
:1025D000006840070AD500222B464FF480012046B0
:1025E000009700F09BFA08B10320F8BD2020A067F7
:1025F000E0672666002084F87460F8BD10B5806B33
:102600000021A0F85A10A0F85210FFF709FB10BDE6
:10261000016851E8002F22F4907241E80023002B5A
:10262000F6D10168083151E8002F22F0010241E89B
:102630000023002BF5D1016E012908D1026852E870
:10264000001F21F0100142E80013002BF6D10021F9
:102650002022C26701664166704710B5C16FB0F8AD
:102660005C202229016804D0886940F00800886154
:1026700010BD496A436D11401980416D891C416547
:10268000B0F85A10491EA0F85A10B0F85A10002994
:10269000EED1026852E8001F21F4907142E8001365
:1026A000002BF6D10168083151E8002F22F0010219
:1026B00041E80023002BF5D12022C2670021026EE1
:1026C0004166012A02D0FFF7A5FC10BD0166026831
:1026D00052E8001F21F0100142E80013002BF6D150
:1026E0000168CA69D243D20601D410220A62B0F846
:1026F0005810FFF774FA10BD10B5C16FB0F85C2028
:102700002229016804D0886940F00800886110BD62
:10271000496A436D11401970416D491C4165B0F81B
:102720005A10491EA0F85A10B0F85A100029EED1DC
:10273000026852E8001F21F4907142E80013002B58
:10274000F6D10168083151E8002F22F0010241E87A
:102750000023002BF5D12022C2670021026E4166C2
:10276000012A02D0FFF756FC10BD0166026852E84C
:10277000001F21F0100142E80013002BF6D1016880
:10278000CA69D243D20601D410220A62B0F85810A6
:10279000FFF725FA10BD00002DE9F041044603685B
:1027A000C2698168D4E90450DFF8F0C17C4E294346
:1027B0001F68002510437B4A014307EA0C070F43BB
:1027C0001F604FF400402168E7684B6823F44053D2
:1027D0003B434B602768A369216AD7F808C01943B7
:1027E0002CF430630B43BB602168B1420AD11168FD
:1027F00011F0030152D001297CD0022971D00329A4
:102800006ED184E0684B99420AD1116811F00C0135
:1028100067D0042965D0082975D00C2960D176E0ED
:10282000624B99420AD1116811F0300159D0102938
:102830006BD0202967D0302952D168E05C4B994297
:102840000AD1116811F0C0014BD040295DD0802918
:1028500059D0C02944D15AE0564B99420DD1116844
:1028600011F440713DD0B1F5807F4ED0B1F5007FBD
:1028700049D0B1F5407F33D149E04F4B99420FD158
:10288000116811F4406109D0B1F5806F3DD0B1F508
:10289000006F38D0B1F5406F22D138E0012120E03F
:1028A000464B99420DD1116811F4405119D0B1F540
:1028B000805F2AD0B1F5005F25D0B1F5405F0FD120
:1028C00025E03F4B99420BD1116811F4404108D0EB
:1028D000B1F5804F19D0814215D0B1F5404F16D0D7
:1028E0001021E369374A4FF6EF7683422ED109294A
:1028F00049D201E009E006E0DFE801F00B0E1145E6
:102900001345454516000221EBE70421E9E70821BC
:10291000E7E7FEF733FF06E0FEF740FF03E010466F
:1029200002E0FEF74BFF78B36168400000EB510016
:10293000B0FBF1F0A0F11001B14224D84FF6F073D2
:102940002168C0F342021840104320E009291AD23E
:10295000DFE801F005080B190D1919191000FEF731
:102960000DFF06E0FEF71AFF03E0104602E0FEF757
:1029700025FF48B1616800EB5100B0FBF1F0A0F118
:102980001001B14201D9012502E0216880B2C8607E
:1029900000206066A0662846BDE8F081F369FFEF7D
:1029A00000100140903802400044004000480040C0
:1029B000004C0040005000400014014000780040EE
:1029C000007C00400024F40030B583680024416599
:1029D0004FF48055A0F85820AB42A0F85A204FF091
:1029E000FF01446604D102697ABB40F2FF112CE07A
:1029F0004FF07F023BB3B3F1805F29D0A0F85C4079
:102A00002221C0F88040C1670168083151E8002FD9
:102A100042F0010241E80023002BF5D18168A94270
:102A200001D10169D9B114494166016980F8744046
:102A3000B9B1026852E8001F41F4907142E80013F6
:102A4000002BF6D116E0036933B9A0F85C10D7E784
:102A5000016909B13F21F8E7A0F85C20D0E70749F8
:102A6000E2E7016851E8002F42F0200241E800232C
:102A7000002BF6D1002030BDF92600085B260008A7
:102A8000816F212910D1B0F8521071B1C16C026868
:102A90000988C1F308019162C16C891CC164B0F856
:102AA0005210491EA0F852107047026852E8001FE9
:102AB00021F0800142E80013002BF6D1026852E8B1
:102AC000001F41F0400142E80013002BF6D170478F
:102AD000816F21290ED1B0F8521061B1C16C02682A
:102AE00009789162C16C491CC164B0F85210491E4A
:102AF000A0F852107047026852E8001F21F08001D0
:102B000042E80013002BF6D1026852E8001F41F0A2
:102B1000400142E80013002BF6D170472DE9F04741
:102B20009A4617460E460446089D4FF000094FF09E
:102B300020084CE0681C4AD0FEF76CF9A0EB0A00B4
:102B4000A8422AD84DB32068016849073FD5C0691B
:102B5000C04300053BD421684FF40060086221683F
:102B600051E8000F20F4D07041E80002002AF6D1AD
:102B70002068083050E8001F21F0010140E80012F1
:102B8000002AF5D1C4F8788084F87490C4F87C8069
:102B9000C4F880800320BDE8F087206850E8001F5B
:102BA00021F4D07140E80012002AF6D120680830E4
:102BB00050E8001F21F0010140E80012002AF5D181
:102BC000C4F8788084F87490C4F87C80E2E72068C8
:102BD000C06936EA000004D00020B842AAD0002024
:102BE000D9E70120F9E700000148FFF71BB8000012
:102BF00058040020FEE710B5082986B020D8FF2829
:102C00004FF001031AD007281AD8C0F10802D2B237
:102C1000914200D9114600220092CDE902010193B0
:102C2000FDF7FCFE0220049005A96846FDF762FE50
:102C30000446FDF7A7FE204606B010BD0093EEE760
:102C40000120F9E72DE9F041002516460F468046A0
:102C5000FDF7E4FE002408E0002318F804203919E9
:102C60001846FDF799FE641C0546B442F4D3FDF7FF
:102C700089FE2846BDE8F08170B500F02BF800F021
:102C8000B3F8104CD0230422411F23706070A2704F
:102C9000217101462046FDF7A7FC6578621CE02300
:102CA00009496055607883546078801CC2B20A700C
:102CB00006492046FDF7A4FC0548017841F01001C3
:102CC000017070BD3C030020040000203C02002085
:102CD000070000201149002030B5114B0A78D407B5
:102CE00005D006241C70012022F001020A70D4B223
:102CF000620706D50525421C1D5424F00404104625
:102D00000C7008490C78A20706D50725421C1D54F3
:102D100024F0020410460C7030BD00000B000020AF
:102D20003C0400200C0000200548C078012805D094
:102D3000022803D0032801D100F004B87047000036
:102D40003C01002020480521F0B504791F4A641D8C
:102D500037E0435C052B04D0062B0CD0072B2CD17D
:102D600017E01B4B4518AE781E70ED785D70137838
:102D700043F084030BE0174E4318D3F802507560FC
:102D8000DD1D9B793560B360137843F04103137008
:102D900013E0114B0227114D114E93F800C04CF077
:102DA000010C83F800C02B7843F002032B703378BA
:102DB00043F0080333700B4B1F704318891C5B787A
:102DC00019448C42C5D8F0BD3C0100200B00002006
:102DD000090000204C040020080000200C00002006
:102DE000070000200600002003462248F0B5C27804
:102DF00005201F49012A07D0022A0ED0032A13D02A
:102E0000042A09D100212FE00222CA70002101E02A
:102E1000491CC9B29942FBD3F0BD002101E0491C15
:102E2000C9B29942FBD3F0BD0422CA700124124EEC
:102E300000220F2513E0B75C062F03D0052F01D029
:102E4000072F0AD100F1010C0F540CF0FF00471CB2
:102E50000C54F8B2471C0D54F8B2521CD2B29A422C
:102E6000E9D3F0BD491CC9B29942FBD3F0BD0000C3
:102E70003C0300203C0100203C04002009070028FE
:102E80004FEA116104DB00F1E02080F80014704784
:102E900000F00F0000F1E02080F8141D7047FDF7EE
:102EA000C7FFFFF7B3FAFFF75DF9FFF771F90120EC
:102EB000FDF718FB0020FDF715FB00210846FDF784
:102EC0004BFBFDF7E5FA0020FDF73AFB012801D0A6
:102ED000FDF7E8FAFFF762FAFFF7ECF9FAE74FF0CF
:102EE0004070E1EE100A7047000000000000000092
:102EF00001020304060708090000000001020304A0
:102F000001000600242F0008000000203C00000003
:102F100034020008602F00083C0000201C0B000059
:102F20005002000801000000000000000000000046
:102F30000000000001000000100000000000000080
:102F40000024F40000000000000000000000024027
:102F50000020000020000000002402400024024065
:04000005080001F9F5
:00000001FF
